:100000000C9437000C94E5000C94E5000C94E5008A
:100010000C94E5000C94E5000C94E5000C94E500CC
:100020000C94E5000C94E5000C94E5000C94E500BC
:100030000C94E5000C94E5000C94E5000C94E500AC
:100040000C94E5000C94E5000C94E5000C94E5009C
:100050000C94E5000C9461000C94E5000C94E50010
:100060000C94E5000C94E5000100010180001124CE
:100070001FBECFEFD8E0DEBFCDBFE8E6F0E040E046
:1000800017C0B591A59135912591059107FD0CC03B
:1000900095918591EF01F92FE82F05900D92A21708
:1000A000B307D9F7FE0104C01D92A217B307E1F709
:1000B000ED36F40731F70E94BD000C945F00F89410
:0200C000FFCF70
:1000C2001F920F920FB60F9211242F933F934F93CB
:1000D2005F938F939F93EF93FF938091780020918A
:1000E200790030E0220F331F220F331F282B40915B
:1000F200000180E4489FA0011124C90196958795CB
:10010200929582958F7089279F708927482BE0EC02
:10011200F0E0808185FFFDCF4093C6009091000101
:1001220050E4959FC0011124842B2F712062282B4B
:10013200E0ECF0E0808185FFFDCF2093C600809146
:1001420000018F5F837080930001ECE7F0E0908103
:10015200892B8083EAE7F0E0808180648083FF91CD
:10016200EF919F918F915F914F913F912F910F90BE
:080172000FBE0F901F901895BD
:10017A00EAE7F0E080818068808380818460808300
:10018A0080818860808378948081806480831092E3
:10019A007C00E5ECF0E080818083E4ECF0E0808193
:1001AA0089618083E1ECF0E0808188618083E2EC00
:1001BA00F0E0808188608083808186608083FFCFC1
:0401CA000C94000091
:00000001FF
